:0400000007EF00F016
:0A0008007682AFED0EF09BEF17F0CB
:10100000003132334134353642373839432A3023C0
:101010004400A861C4091027140022002200230004
:101020001A001A00170019000D000600080002003F
:1010300034001F001400290034002C002400280074
:09104000A86150C3A861D430007E
:10104A005DEF0EF0000E5F6E000E5E6E1200140E63
:10105A00F66E100EF76E0900F5500001BD5D000135
:10106A00BE51800A0001AA6F0900F550800A0001EA
:10107A00AA59D8A066D13C0EF66E100EF76E09007A
:10108A00F550401846E10900F5504118D8A441D05E
:10109A003A0EF66E100EF76E0900F5CFAAF00900A7
:1010AA00F5CFABF0FD0E0001AA253C6EFF0E000144
:1010BA00AB213D6E020E52185310D8A405D01C0E57
:1010CA00F66E100EF76E04D03E0EF66E100EF76E28
:1010DA000900F5CFAAF00900F5CFABF0FD0E00012B
:1010EA00AA253E6EFF0E0001AB213F6E3C0EF66E46
:1010FA00100EF76E0900F5CFAAF00900F5CFABF094
:10110A00FD0E0001AA25406EFF0E0001AB21416EC3
:10111A0028D03A0EF66E100EF76E0900F5CF3CF0A5
:10112A000A00F5CF3DF0020E52185310D8A405D08C
:10113A001C0EF66E100EF76E04D03E0EF66E100EF2
:10114A00F76E0900F5CF3EF00A00F5CF3FF03C0EEE
:10115A00F66E100EF76E0900F5CF40F00A00F5CFD3
:10116A0041F0000E0001BE6F000EBD6FEAD0000E06
:10117A00536E010E526E000E4B6E000E4A6E000E3A
:10118A004F6E000E4E6E000E4D6E000E4C6E00013C
:10119A00BB050001BC11D8A4120099EC14F012008E
:1011AA00400EF66E100EF76E0900F5504A5C4B5071
:1011BA00800A0001AA6F0900F550800A0001AA59A5
:1011CA00D8A015D0000E556E140E546E000E536E34
:1011DA00000E526E000E5F6E000E5E6E8B9A8B9C36
:1011EA000001BB050001BC11D8B499EC14F0400E03
:1011FA00F66E100EF76E0900F5504E5C4F50800ADD
:10120A000001AA6F0900F550800A0001AA59D8A066
:10121A0015D0000E536E020E526E000E4F6E000E67
:10122A004E6E000E5F6E000E5E6E8B9A8B9C0001F6
:10123A00BB050001BC11D8B499EC14F0400EF66E4F
:10124A00100EF76E0900F5504C5C4D50800A0001F3
:10125A00AA6F0900F550800A0001AA59D8A0120005
:10126A00000E556E280E546E000E536E000E526E0E
:10127A00000E5F6E000E5E6E8B9A8B9C0001BB05A2
:10128A000001BC11D8A4120099EC14F012001C0E33
:10129A00F66E100EF76E0900F5CF3EF00A00F5CF94
:1012AA003FF0400EF66E100EF76E0900F5504E5CD8
:1012BA004F50800A0001AA6F0900F550800A000108
:1012CA00AA59D8A015D0000E556E1E0E546E000EE7
:1012DA00536E000E526E000E5F6E000E5E6E8B9A9B
:1012EA008B9C0001BB050001BC11D8B499EC14F029
:1012FA00400EF66E100EF76E0900F5504C5C4D501C
:10130A00800A0001AA6F0900F550800A0001AA5953
:10131A00D8A01200000E556E280E546E000E536EA1
:10132A00000E526E000E5F6E000E5E6E8B9A8B9CE4
:10133A000001BB050001BC11D8A4120099EC14F0FD
:10134A00120052C0AAF053C0ABF00001AB51000A20
:10135A00D8A412000001AA51000AD8B408D7010A79
:10136A00D8B41ED7030AD8A4120091D7200EF66E5D
:10137A00100EF76E0900F5CF3CF00A00F5CF3DF0EC
:10138A00440EF66E100EF76E0900F5505E5C090009
:10139A00F5505F58D8A01200000E556E150E546E07
:1013AA00000E636E000E626E000E5F6E000E5E6EC1
:1013BA000001BB050001BC11D8B499EC14F0180E59
:1013CA00F66E100EF76E0900F5CF42F00A00F5CF5F
:1013DA0043F01200180EF66E100EF76E0900F5CFE4
:1013EA0042F00A00F5CF43F0440EF66E100EF76E87
:1013FA000900F5505E5C0900F5505F58D8A012004C
:10140A00460EF66E100EF76E0900F550625C6350D8
:10141A00800A0001AA6F0900F550800A0001AA5942
:10142A00D8A00ED0300EF66E100EF76E0900F5CF6A
:10143A0044F00A00F5CF45F00001AD4BAE2B0DD0BC
:10144A00360EF66E100EF76E0900F5CF44F00A005C
:10145A00F5CF45F00001B34BB42B1A0EF66E100E01
:10146A00F76E0900F5CF42F00A00F5CF43F0000EFF
:10147A00556E190E546E000E5F6E000E5E6E000100
:10148A00BB050001BC11D8A4120099EC14F012009B
:10149A001A0EF66E100EF76E0900F5CF42F00A002A
:1014AA00F5CF43F0440EF66E100EF76E0900F550B4
:1014BA005E5C0900F5505F58D8A01200000E5F6EFE
:1014CA00000E5E6E000E556E160E546E1200280E39
:1014DA00F66E100EF76E0900F5CF3CF00A00F5CF54
:1014EA003DF0440EF66E100EF76E0900F5505E5C84
:1014FA000900F5505F58D8A01200000E556E170E5D
:10150A00546E000E5F6E000E5E6E0001BB05000198
:10151A00BC11D8A4120099EC14F01200440EF66E15
:10152A00100EF76E0900F5CF80F00A00F5CF81F0B2
:10153A00000E0001836F020E826F7BEC16F0000131
:10154A0080515E5C000181515F58D8A01200000EE4
:10155A00556E180E546E000E5F6E000E5E6E000120
:10156A00BB050001BC11D8B499EC14F03A0EF66E22
:10157A00100EF76E0900F5CF3CF00A00F5CF3DF0EA
:10158A0012003A0EF66E100EF76E0900F5CF3CF017
:10159A000A00F5CF3DF03E0EF66E100EF76E09000A
:1015AA00F5CF3EF00A00F5CF3FF03C0EF66E100E76
:1015BA00F76E0900F5CF40F00A00F5CF41F0440E6E
:1015CA00F66E100EF76E0900F5505E5C0900F550D4
:1015DA005F58D8A012002E0EF66E100EF76E00019C
:1015EA00B1510001AD250001AA6F0001B2510001FD
:1015FA00AE210001AB6F0001AF510001AA27000123
:10160A00B0510001AB230001B3510001AA27000128
:10161A00B4510001AB230900F5500001AA5D000195
:10162A00AB51800A0001AC6F0900F550800A000135
:10163A00AC59D8A007D0000E556E630E546E75ECE7
:10164A0011F00BD0000E556E010E546E0001BB0551
:10165A000001BC11D8B499EC14F0000E5F6E000EB4
:10166A005E6E12003A0EF66E100EF76E0900F5CF96
:10167A003CF00A00F5CF3DF0240EF66E100EF76E20
:10168A000900F5CF3EF00A00F5CF3FF0440EF66EA2
:10169A00100EF76E0900F5505E5C0900F5505F58B0
:1016AA00D8A01200000E556E1F0E546E000E5F6E0B
:1016BA00000E5E6E0001BB050001BC11D8B499ECA6
:1016CA0014F0180EF66E100EF76E0900F5CF42F000
:1016DA000A00F5CF43F01200180EF66E100EF76EE0
:1016EA000900F5CF42F00A00F5CF43F0440EF66E3A
:1016FA00100EF76E0900F5505E5C0900F5505F5850
:10170A00D8A01200460EF66E100EF76E0900F550BC
:10171A00665C6750800A0001AA6F0900F550800ACA
:10172A000001AA59D8A00ED0340EF66E100EF76E2C
:10173A000900F5CF44F00A00F5CF45F00001B14B9E
:10174A00B22B0DD0360EF66E100EF76E0900F5CFDD
:10175A0044F00A00F5CF45F00001B34BB42B1A0E42
:10176A00F66E100EF76E0900F5CF42F00A00F5CFBB
:10177A0043F0000E556E230E546E000E5F6E000E7F
:10178A005E6E0001BB050001BC11D8A4120099ECE1
:10179A0014F012001A0EF66E100EF76E0900F5CF4D
:1017AA0042F00A00F5CF43F0440EF66E100EF76EC3
:1017BA000900F5505E5C0900F5505F58D8A0120088
:1017CA00000E5F6E000E5E6E000E556E200E546E99
:1017DA0012002C0EF66E100EF76E0900F5CF3EF0D1
:1017EA000A00F5CF3FF0440EF66E100EF76E0900B0
:1017FA00F5505E5C0900F5505F58D8A01200000E43
:10180A00556E210E546E000E5F6E000E5E6E000164
:10181A00BB050001BC11D8A4120099EC14F0120007
:10182A00440EF66E100EF76E0900F5CF80F00A002E
:10183A00F5CF81F0000E0001836F020E826F7BEC00
:10184A0016F0000180515E5C000181515F58D8A0FA
:10185A001200000E556E220E546E000E5F6E000EC0
:10186A005E6E0001BB050001BC11D8B499EC14F0FE
:10187A003E0EF66E100EF76E0900F5CF3EF00A0026
:10188A00F5CF3FF012003A0EF66E100EF76E090011
:10189A00F5CF3CF00A00F5CF3DF03E0EF66E100E85
:1018AA00F76E0900F5CF3EF00A00F5CF3FF03C0E87
:1018BA00F66E100EF76E0900F5CF40F00A00F5CF6C
:1018CA0041F0440EF66E100EF76E0900F5505E5C9C
:1018DA000900F5505F58D8A012003E0EF66E100EA1
:1018EA00F76E0900F5CF3EF00A00F5CF3FF02E0E55
:1018FA00F66E100EF76E0001B1510001AD25000120
:10190A00AA6F0001B2510001AE210001AB6F0001C4
:10191A00AF510001AA270001B0510001AB23000119
:10192A00B3510001AA270001B4510001AB230900F9
:10193A00F5500001AA5D0001AB51800A0001AC6FAD
:10194A000900F550800A0001AC59D8A007D0000E52
:10195A00556E630E546E75EC11F00BD0000E556E79
:10196A00010E546E0001BB050001BC11D8B499ECFC
:10197A0014F0000E5F6E000E5E6E1200220EF66EFE
:10198A00100EF76E0900F5CF40F00A00F5CF41F0CE
:10199A003A0EF66E100EF76E0900F5CFAAF009009E
:1019AA00F5CFABF0030E0001AA253C6E000E000134
:1019BA00AB213D6E3E0EF66E100EF76E0900F5CFA6
:1019CA00AAF00900F5CFABF0030E0001AA253E6E7E
:1019DA00000E0001AB213F6E440EF66E100EF76E3C
:1019EA000900F5505E5C0900F5505F58D8A0120056
:1019FA00000E556E290E546E000E5F6E000E5E6E5E
:101A0A000001BB050001BC11D8B499EC14F0180E02
:101A1A00F66E100EF76E0900F5CF42F00A00F5CF08
:101A2A0043F01200180EF66E100EF76E0900F5CF8D
:101A3A0042F00A00F5CF43F0440EF66E100EF76E30
:101A4A000900F5505E5C0900F5505F58D8A046D0F1
:101A5A00460EF66E100EF76E0900F550645C65507E
:101A6A00800A0001AA6F0900F550800A0001AA59EC
:101A7A00D8A00ED0320EF66E100EF76E0900F5CF12
:101A8A0044F00A00F5CF45F00001AF4BB02B0DD062
:101A9A00360EF66E100EF76E0900F5CF44F00A0006
:101AAA00F5CF45F00001B34BB42B1A0EF66E100EAB
:101ABA00F76E0900F5CF42F00A00F5CF43F0000EA9
:101ACA00556E2D0E546E000E5F6E000E5E6E000196
:101ADA00BB050001BC11D8B499EC14F01A0EF66ECD
:101AEA00100EF76E0900F5CF42F00A00F5CF43F069
:101AFA00440EF66E100EF76E0900F5505E5C090092
:101B0A00F5505F58D8A01200000E5F6E000E5E6E90
:101B1A00000E556E2A0E546E12002A0EF66E100E24
:101B2A00F76E0900F5CF40F00A00F5CF41F0440EF8
:101B3A00F66E100EF76E0900F5505E5C0900F5505E
:101B4A005F58D8A01200000E556E2B0E546E000E70
:101B5A005F6E000E5E6E0001BB050001BC11D8A4C9
:101B6A00120099EC14F01200440EF66E100EF76E85
:101B7A000900F5CF80F00A00F5CF81F0000E0001D0
:101B8A00836F020E826F7BEC16F0000180515E5C5F
:101B9A00000181515F58D8A01200000E556E2C0E1C
:101BAA00546E000E5F6E000E5E6E0001BB050001F2
:101BBA00BC11D8B499EC14F03C0EF66E100EF76E08
:101BCA000900F5CF40F00A00F5CF41F012003A0EB5
:101BDA00F66E100EF76E0900F5CF3CF00A00F5CF4D
:101BEA003DF03E0EF66E100EF76E0900F5CF3EF090
:101BFA000A00F5CF3FF03C0EF66E100EF76E0900A4
:101C0A00F5CF40F00A00F5CF41F0440EF66E100E03
:101C1A00F76E0900F5505E5C0900F5505F58D8A0D0
:101C2A0012002E0EF66E100EF76E0001B151000171
:101C3A00AD250001AA6F0001B2510001AE210001D9
:101C4A00AB6F0001AF510001AA270001B05100019A
:101C5A00AB230001B3510001AA270001B4510001CE
:101C6A00AB230900F5500001AA5D0001AB51800ABF
:101C7A000001AC6F0900F550800A0001AC59D8A0E8
:101C8A0007D0000E556E630E546E75EC11F00BD032
:101C9A00000E556E010E546E0001BB050001BC1109
:101CAA00D8B499EC14F0000E5F6E000E5E6E12004E
:101CBA0054C0AAF055C0ABF00001AB51000AD8A439
:101CCA0012000001AA51000AD8B427EF08F0010A4D
:101CDA00D8B42CEF08F0150AD8B4BBEF09F0010A02
:101CEA00D8B4EFEF09F0030AD8B46CEF0AF0010A8E
:101CFA00D8B414D40F0AD8B444D4010AD8B44DEFD6
:101D0A000AF0070AD8B4AED4010AD8B4E5D43F0A17
:101D1A00D8B45FD5010AD8B483D5030AD8B4B3D5E9
:101D2A00010AD8B437D50B0AD8B428D6010AD8B4D0
:101D3A0079D6030AD8B4F1D6010AD8B415D7070A56
:101D4A00D8B445D7010AD8B4C9D64F0AD8B41200B4
:101D5A00010A12000600FACF06F0FBCF07F0E9CF1E
:101D6A0008F0EACF09F0E1CF0AF0E2CF0BF0D9CFC1
:101D7A000CF0DACF0DF0F3CF0EF0F4CF0FF0F6CF70
:101D8A0010F0F7CF11F0F8CF12F0F5CF13F0F29E62
:101D9A009EA06BD29E90CD90800ECD6ECF685F0EC6
:101DAA00CE6E74047510D8A460D2640E54185510FF
:101DBA00D8B44FD05C4A5D2A3C505C5C5D50800AC6
:101DCA00016E3D50800A0158D8B08BA001D08B908B
:101DDA003E505C5C5D50800A016E3F50800A01589B
:101DEA00D8B08BA201D08B9240505C5C5D50800AC7
:101DFA00016E4150800A0158D8B08BA401D08B944F
:101E0A0042505C5C5D50800A016E4350800A015862
:101E1A00D8B08BA601D08B9644505C5C5D50800A8A
:101E2A00016E4550800A0158D8B08BA801D08B9812
:101E3A005DBE0FD0F40E5C5C010E5D58D8A009D0CF
:101E4A00000E5D6E000E5C6E8B808B828B848B869F
:101E5A008B88500E5E5CC30E5F58D8B0EFD15E4AD5
:101E6A005F2AECD1360EF66E100EF76E0900F5CF2A
:101E7A0044F00A00F5CF45F00001BD4BBE2BEED071
:101E8A0080A01FD0E80E016E030E026E400EF66EA1
:101E9A00100EF76E0900F5CF03F00900F5CF04F034
:101EAA00015003260250042203504A5C4B50800A18
:101EBA00056E0450800A0558D8B00DD04A4A4B2AFC
:101ECA000AD04BBE08D04B5003E14A04D8A003D035
:101EDA004A06D8A04B0680A21FD0E80E016E030E58
:101EEA00026E400EF66E100EF76E0900F5CF03F083
:101EFA000900F5CF04F001500326025004220350D2
:101F0A004E5C4F50800A056E0450800A0558D8B0BE
:101F1A000DD04E4A4F2A0AD04FBE08D04F5003E187
:101F2A004E04D8A003D04E06D8A04F0684A01FD0D6
:101F3A00E80E016E030E026E400EF66E100EF76E7C
:101F4A000900F5CF03F00900F5CF04F0015003268C
:101F5A000250042203504C5C4D50800A056E045016
:101F6A00800A0558D8B080D14C4A4D2A7DD14DBE41
:101F7A007BD14D5032E14C04D8A076D12ED080A22C
:101F8A001FD0E80E016E030E026E400EF66E100EA2
:101F9A00F76E0900F5CF03F00900F5CF04F0015000
:101FAA0003260250042203504E5C4F50800A056EED
:101FBA000450800A0558D8B00DD04E4A4F2A0AD08C
:101FCA004FBE08D04F5003E14E04D8A003D04E06AE
:101FDA00D8A04F0684B0ACD7CAD74C06D8A04D06B5
:101FEA0043D180A004D0000E156E0A0E146E80A292
:101FFA0004D0000E176E0A0E166E84A004D0000ECE
:10200A00196E090E186E80A004D0000E1B6E7B0E8E
:10201A001A6E84A004D0000E1D6E560E1C6E80A08F
:10202A0004D0000E1F6E0A0E1E6E80A204D0000E8F
:10203A00216E0A0E206E84A004D0000E236E090EB3
:10204A00226E80A004D0000E256E7B0E246E84A022
:10205A000BD1000E276E560E266E06D152C001F025
:10206A0053C002F00250000AD8A4BBD70150010A9B
:10207A00D8B406D7030AD8B482D7B3D784A203D078
:10208A00016A012A01D0016A0150686E696A80A852
:10209A0003D0016A012A01D0016A01506A6E6B6A93
:1020AA0080AA03D0016A012A01D0016A01506C6E2C
:1020BA006D6A68046910D8B408D06A046B10D8B481
:1020CA0004D06C046D10D8A420D0E80E016E030E63
:1020DA00026E460EF66E100EF76E0900F5CF03F08B
:1020EA000900F5CF04F001500326025004220350E0
:1020FA00625C6350800A056E0450800A0558D8B0A5
:10210A0004D0640E6226000E632284A421D0E80E55
:10211A00016E030E026E460EF66E100EF76E090081
:10212A00F5CF03F00900F5CF04F001500326025061
:10213A0004220350665C6750800A056E0450800AC8
:10214A000558D8B091D00A0E6626000E67228CD0A8
:10215A0067BE8AD0675003E16604D8A085D06606B8
:10216A00D8A0670681D082AE21D0E80E016E030E98
:10217A00026E460EF66E100EF76E0900F5CF03F0EA
:10218A000900F5CF04F0015003260250042203503F
:10219A00645C6550800A056E0450800A0558D8B000
:1021AA0063D00A0E6426000E65225ED065BE5CD03E
:1021BA00655003E16404D8A057D06406D8A0650628
:1021CA0053D080A004D0000E296E0A0E286E80A279
:1021DA0004D0000E2B6E0A0E2A6E84A004D0000EC4
:1021EA002D6E090E2C6E80A004D0000E2F6E7B0E71
:1021FA002E6E84A004D0000E316E560E306E80A072
:10220A0004D0000E336E0A0E326E80A204D0000E85
:10221A00356E0A0E346E84A004D0000E376E090E95
:10222A00366E80A004D0000E396E7B0E386E84A004
:10223A001BD0000E3B6E560E3A6E16D054C001F0FB
:10224A0055C002F00250000AD8A4BBD70150010AB7
:10225A00D8B408D6140AD8B411D70A0AD8B455D7AC
:10226A00360AD8B480D7ADD7CD80F2A41AD0F2946A
:10227A00D59E070ED56E850ED76EED0ED66E5450CE
:10228A005510D8B40DD0640E54185510D8B408D0CF
:10229A00630E54185510D8B403D00001B54BB62BB1
:1022AA00D58EF28E13C0F5FF12C0F8FF11C0F7FFEA
:1022BA0010C0F6FF0FC0F4FF0EC0F3FF0DC0DAFF27
:1022CA000CC0D9FF0BC0E2FF0AC0E1FF09C0EAFF58
:1022DA0008C0E9FF07C0FBFF06C0FAFF76921100AB
:1022EA0023EC18F0ADC080F0AEC081F0000E000102
:1022FA00836F0A0E826F7BEC16F0300E0001802588
:10230A000001896F000E0001812100018A6FADC0B2
:10231A0080F0AEC081F0000E0001836F0A0E826F5A
:10232A00DAEC16F0300E0001802500018B6F000EEA
:10233A000001812100018C6FB1C080F0B2C081F030
:10234A00000E0001836F0A0E826F7BEC16F0300ECE
:10235A000001802500018D6F000E0001812100011E
:10236A008E6FB1C080F0B2C081F0000E0001836FA1
:10237A000A0E826FDAEC16F0300E00018025000199
:10238A008F6F000E000181210001906FAFC080F0B5
:10239A00B0C081F0000E0001836F0A0E826F7BECE1
:1023AA0016F0300E000180250001916F000E000129
:1023BA0081210001926FAFC080F0B0C081F0000EA1
:1023CA000001836F0A0E826FDAEC16F0300E0001FC
:1023DA0080250001936F000E000181210001946F96
:1023EA00B3C080F0B4C081F0000E0001836F0A0E02
:1023FA00826F7BEC16F0300E000180250001956F8C
:10240A00000E000181210001966FB3C080F0B4C0B4
:10241A0081F0000E0001836F0A0E826FDAEC16F06B
:10242A00300E000180250001976F000E0001812106
:10243A000001986FB5C080F0B6C081F0000E0001AF
:10244A00836F3C0E826F2BEC17F080C0A4F081C022
:10245A00A5F0A4C080F0A5C081F0000E0001836F32
:10246A003C0E826F46EC18F00001801F0001811FAC
:10247A000001804B812B0001B5510001802500012C
:10248A00A66F0001B651000181210001A76FA6C005
:10249A0080F0A7C081F0000E0001836F0A0E826FE0
:1024AA002BEC17F080C0A6F081C0A7F0300E000117
:1024BA00A627000EA723300E0001A427000EA5238D
:1024CA00B5C080F0B6C081F0000E0001836F0A0E1D
:1024DA00826FCEEC17F080C0A8F081C0A9F005D0B9
:1024EA000A0E0001A85F000EA95B0001A951F8E1DC
:1024FA000B0E0001A85DD8B0F3D7300E0001A82753
:10250A00000EA923A4C099F0A6C09AF0A8C09BF017
:10251A0089C09CF08BC09DF08DC09EF08FC09FF04B
:10252A0091C0A0F093C0A1F095C0A2F097C0A3F00B
:10253A00390E61EC18F0560E61EC18F03A0E61ECA7
:10254A0018F000019C5161EC18F000019D5161ECFA
:10255A0018F0200E61EC18F0430E61EC18F03A0EF8
:10256A0061EC18F000019E5161EC18F000019F51D6
:10257A0061EC18F0200E61EC18F0410E61EC18F0D5
:10258A00410E61EC18F03A0E61EC18F00001A0510E
:10259A0061EC18F00001A15161EC18F0C00E69EC71
:1025AA0018F0440E61EC18F0520E61EC18F04E0E61
:1025BA0061EC18F03A0E61EC18F00001A25161ECDE
:1025CA0018F00001A35161EC18F0200E61EC18F02C
:1025DA00540E61EC18F03A0E61EC18F0200E61EC22
:1025EA0018F00001995161EC18F03A0E61EC18F0FC
:1025FA0000019A5161EC18F000019B5161EC18F04E
:10260A00680E0001886FE40EE82EFED7882FFCD7EB
:10261A0000F0120081A2120081380F0B0F0B706EAE
:10262A007050010D010EF324F66E100EF420F76EB1
:10263A000800F5CF72F000F000F065D15450551043
:10264A00D8A412005A045B10D8A404D0000E556E08
:10265A00620E03D0000E556E010E546E0001BB05CA
:10266A000001BC11D8B499EC14F0000E536E000EA0
:10267A00526E3A0EF66E100EF76E0900F5CF3CF068
:10268A000A00F5CF3DF03E0EF66E100EF76E090009
:10269A00F5CF3EF00A00F5CF3FF03C0EF66E100E75
:1026AA00F76E0900F5CF40F00A00F5CF41F01A0E97
:1026BA00F66E100EF76E0900F5CF42F00A00F5CF5C
:1026CA0043F0360EF66E100EF76E0900F5CF44F0A1
:1026DA000A00F5CF45F0000E0001B66F000EB56F87
:1026EA00000E5D6E000E5C6E1200000E556E000E3E
:1026FA00546E000E536E000E526E3A0EF66E100EA7
:10270A00F76E0900F5CF3CF00A00F5CF3DF03E0E1A
:10271A00F66E100EF76E0900F5CF3EF00A00F5CFFF
:10272A003FF03C0EF66E100EF76E0900F5CF40F042
:10273A000A00F5CF41F01A0EF66E100EF76E090078
:10274A00F5CF42F00A00F5CF43F0360EF66E100EC2
:10275A00F76E0900F5CF44F00A00F5CF45F0000EF8
:10276A000001AE6F000EAD6F000E0001B26F000ED9
:10277A00B16F000E0001B06F000EAF6F000E0001C6
:10278A00B46F000EB36F000E4B6E000E4A6E000E51
:10279A004F6E000E4E6E000E4D6E000E4C6E000E09
:1027AA00636E000E626E000E676E000E666E000E9D
:1027BA00656E000E646E000E476E000E466E000EC9
:1027CA005D6E000E5C6E000E5F6E000E5E6E000E99
:1027DA00616E000E606E000E0001BE6F000EBD6FCE
:1027EA00FFEC17F01200000E756E000E746E000EEC
:1027FA00556E640E546E1200620E54185510D8A409
:10280A001200424A432A23EC18F0680E0001886F2E
:10281A00E40EE82EFED7882FFCD700F042C080F0E5
:10282A0043C081F0000E0001836F0A0E826F7BECB9
:10283A0016F0300E00018025566E000E000181212F
:10284A00576E42C080F043C081F0000E0001836FD2
:10285A000A0E826FDAEC16F0300E00018025486EFF
:10286A00000E00018121496E56C073F048C071F014
:10287A00735061EC18F0715061EC18F01200620E9E
:10288A0054185510D8A412004206D8A0430623ECC7
:10289A0018F0680E0001886FE40EE82EFED7882F24
:1028AA00FCD700F042C080F043C081F0000E000166
:1028BA00836F0A0E826F7BEC16F0300E00018025C2
:1028CA00566E000E00018121576E42C080F043C04F
:1028DA0081F0000E0001836F0A0E826FDAEC16F0A7
:1028EA00300E00018025486E000E00018121496EDC
:1028FA0056C073F048C071F0735061EC18F0715013
:10290A0061EC18F012007250310AD8B497D6030A53
:10291A00D8B4EBD6010AD8B466D7070AD8B4AFD769
:10292A00750AD8A4120068D723EC18F021D1520EE8
:10293A0061EC18F0530E61EC18F064D1570E61EC9B
:10294A0018F0530E61EC18F05DD1570E61EC18F0D7
:10295A00530E61EC18F0430E61EC18F053D152C0DB
:10296A0084F053C085F000018551000AD8A44AD1E9
:10297A0000018451000AD8B4DAD7010AD8B4DED7E4
:10298A00030AD8B4E2D73ED1460E61EC18F0200E05
:10299A0061EC18F0390E61EC18F0560E61EC18F083
:1029AA0031D1560E61EC18F0200E61EC18F0390E98
:1029BA0061EC18F0560E61EC18F024D1560E61EC59
:1029CA0018F0550E61EC18F0200E61EC18F0390E73
:1029DA0061EC18F0560E61EC18F014D1410E61EC5E
:1029EA0018F0200E61EC18F0390E61EC18F0560E52
:1029FA0061EC18F007D1460E61EC18F0410E61EC5B
:102A0A0018F0200E61EC18F0390E61EC18F0560E31
:102A1A0061EC18F0F7D0520E61EC18F0200E61EC60
:102A2A0018F0390E61EC18F0560E61EC18F0EAD085
:102A3A00460E61EC18F0200E61EC18F0430E61ECC2
:102A4A0018F0E0D0560E61EC18F0200E61EC18F088
:102A5A00430E61EC18F0D6D0560E61EC18F0550E04
:102A6A0061EC18F0200E61EC18F0430E61EC18F0DE
:102A7A00C9D0410E61EC18F0200E61EC18F0430E3B
:102A8A0061EC18F0BFD0460E61EC18F0410E61EC13
:102A9A0018F0200E61EC18F0430E61EC18F0B2D079
:102AAA00520E61EC18F0200E61EC18F0430E61EC46
:102ABA0018F0A8D0460E61EC18F0200E61EC18F060
:102ACA00410E61EC18F0410E61EC18F09BD0560EE5
:102ADA0061EC18F0200E61EC18F0410E61EC18F070
:102AEA00410E61EC18F08ED0560E61EC18F0550EBE
:102AFA0061EC18F0200E61EC18F0410E61EC18F050
:102B0A00410E61EC18F07ED0410E61EC18F0200EF7
:102B1A0061EC18F0410E61EC18F0410E61EC18F00E
:102B2A0071D0460E61EC18F0410E61EC18F0200EDF
:102B3A0061EC18F0410E61EC18F0410E61EC18F0EE
:102B4A0061D0520E61EC18F0200E61EC18F0410EC3
:102B5A0061EC18F0410E61EC18F054D0450E61ECAE
:102B6A0018F04E0E61EC18F0440E61EC18F04AD0E1
:102B7A0054C084F055C085F000018551000AD8A4DC
:102B8A0041D000018451010AD8B4E9D6150AD8B453
:102B9A00FBD6010AD8B405D7030AD8B42CD7010A40
:102BAA00D8B41CD70F0AD8B436D7010AD8B406D776
:102BBA00070AD8B43DD7010AD8B444D73F0AD8B4D3
:102BCA0062D7010AD8B455D7030AD8B469D7010A1B
:102BDA00D8B442D70B0AD8B46DD7010AD8B477D77C
:102BEA00030AD8B49ED7010AD8B48ED7070AD8B434
:102BFA00A8D7010AD8B478D74F0AD8B403D0010AA3
:102C0A00D8B4ACD7680E0001846FE40EE82EFED764
:102C1A00842FFCD700F01200800E946E8B9A000E5F
:102C2A000001B86F000EB76F8B9C000E0001BA6FDF
:102C3A00000EB96F96829268000E956E9368000E28
:102C4A00C26EC168000E8A6ED3507009D36E9B8C17
:102C5A009D80A082F28C800ECD6ECF685F0ECE6E04
:102C6A00CD80070ED56E850ED76EED0ED66ED58E3B
:102C7A003A0EF66E100EF76E0900F5CF3CF00A0018
:102C8A00F5CF3DF03E0EF66E100EF76E0900F5CF49
:102C9A003EF00A00F5CF3FF03C0EF66E100EF76ECE
:102CAA000900F5CF40F00A00F5CF41F01A0EF66E92
:102CBA00100EF76E0900F5CF42F00A00F5CF43F087
:102CCA00360EF66E100EF76E0900F5CF44F00A00C4
:102CDA00F5CF45F0000E756E010E746EF28EFFECA4
:102CEA0017F00FEC13F025EC08F0FBD7000E0001EB
:102CFA00856F000183AF08D00001826D831FD8B0B1
:102D0A00832B010E0001856F000181AF08D00001FD
:102D1A00806D811FD8B0812B010E0001851B000E2A
:102D2A000001876F000E866F000182510001831136
:102D3A00D8B42CD0010E0001846F06D00001D890BF
:102D4A00823783370001842B000183AFF7D7000154
:102D5A00D89086378737000182510001805D0001D3
:102D6A00835100018159D8A00AD000018251000183
:102D7A00805F000183510001815B000186810001AF
:102D8A00D890833382330001842FE1D70001855123
:102D9A000001D8B405D00001866D871FD8B0872BF3
:102DAA0086C080F087C081F01200000E0001856F96
:102DBA00000181AF08D00001806D811FD8B0812B3E
:102DCA00010E0001856F000183AF05D00001826DFD
:102DDA00831FD8B0832B0001825100018311D8B41C
:102DEA0026D0010E0001846F06D00001D8908237E8
:102DFA0083370001842B000183AFF7D7000182518A
:102E0A000001805D0001835100018159D8A008D0DA
:102E1A00000182510001805F000183510001815B42
:102E2A000001D890833382330001842FE7D7000151
:102E3A0085510001D8B405D00001806D811FD8B03A
:102E4A00812B80C080F081C081F01200000E000149
:102E5A00866F000E856F0001825100018311D8B47C
:102E6A002CD0010E0001846F06D00001D890823761
:102E7A0083370001842B000183AFF7D70001D89074
:102E8A0085378637000182510001805D0001835138
:102E9A0000018159D8A00AD0000182510001805F47
:102EAA00000183510001815B000185810001D890F6
:102EBA00833382330001842FE1D785C080F086C036
:102ECA0081F012000001816F00018151F00B0001B5
:102EDA00806F8C500F0B8C6E000180518C108C6EA1
:102EEA008C96420EE82EFED700D08C86420EE82E33
:102EFA00FED700D000018139F00B0001816F00017B
:102F0A008151F00B0001806F8C500F0B8C6E000109
:102F1A0080518C108C6E8C96420EE82EFED700D013
:102F2A008C86420EE82EFED700D01200E80EF66E0E
:102F3A00300EF76E000EF86E00EEBBF010EE04F0E5
:102F4A000900F5CFEEFFE550E150FAE1E20EF66E28
:102F5A00300EF76E000EF86E00EE6EF010EE06F010
:102F6A000900F5CFEEFFE550E150FAE100EEADF0D1
:102F7A000E0EEE6AE806FDE100EE3CF0320EEE6A55
:102F8A00E806FDE176907692000EF86E000111EFE8
:102F9A0016F00001825100018311D8B426D0010E27
:102FAA000001846F06D00001D89082378337000170
:102FBA00842B000183AFF7D7000182510001805DA5
:102FCA000001835100018159D8A008D00001825123
:102FDA000001805F000183510001815B0001D890EC
:102FEA00833382330001842FE7D780C080F081C009
:102FFA0081F0120023EC18F0310E61EC18F03A0E51
:10300A0061EC18F0200E61EC18F0530E61EC18F028
:10301A00540E61EC18F0410E61EC18F0520E61EC9E
:10302A0018F0540E61EC18F0680E0001846FE40E7B
:10303A00E82EFED7842FFCD700F012009C0E000168
:10304A00836FD70EE82EFED7832FFCD7330E69EC99
:10305A0018F0320E69EC18F0280E69EC18F00F0E11
:10306A0069EC18F0060E69EC18F0010E69EC18F01C
:10307A009C0E0001836FD70EE82EFED7832FFCD754
:10308A0012000001805100018203F3CF84F0F4CFD3
:10309A0085F00001805100018303F3500001852768
:1030AA000001815100018203F3500001852784C089
:1030BA0080F085C081F012000001826F8C840001CB
:1030CA00825167EC17F012000001826F8C940001A4
:1030DA00825167EC17F0120001004C304C300100AD
:0230EA000100E3
:020000040020DA
:08000000FFFFFFFFFFFFFFFF00
:020000040030CA
:0E000000FF091F1EFF8381FF0FC00FE00F409E
:00000001FF
